:020000040000FA
:1000000060E60020A5030000E5030000C90200002F
:10001000E9030000EB030000ED0300000000000016
:1000200000000000000000000000000009020000C5
:10003000F10300000000000065020000C70E000090
:10004000F7030000F7030000F7030000F7030000C8
:10005000F7030000F7030000F7030000F7030000B8
:10006000F7030000F7030000F7030000F7030000A8
:10007000F7030000F7030000F7030000F703000098
:10008000F7030000F7030000F7030000F703000088
:10009000F7030000F7030000F7030000F703000078
:1000A000F7030000F7030000F7030000F703000068
:1000B000F7030000F7030000F7030000F703000058
:1000C000F7030000F7030000F7030000F703000048
:1000D000F9910000FF910000F7030000F703000012
:1000E000F5910000F7030000F7030000F70300009C
:1000F000F7030000F7030000F7030000F703000018
:10010000059200000B920000F7030000F7030000C7
:10011000F7030000F7030000F7030000F7030000F7
:10012000F7030000F7030000F7030000F7030000E7
:10013000F7030000F7030000F7030000F7030000D7
:10014000F7030000F7030000F7030000F7030000C7
:10015000F7030000F7030000F7030000F7030000B7
:10016000F7030000F703000011920000179200004F
:10017000F7030000F7030000F7030000F703000097
:10018000F7030000F7030000F7030000F703000087
:10019000F7030000F7030000F7030000F703000077
:1001A000F7030000F7030000F7030000F703000067
:1001B000F7030000F7030000F7030000F703000057
:1001C000F7030000F7030000F7030000F703000047
:1001D000F7030000F7030000F7030000F703000037
:1001E000F7030000F7030000F7030000F703000027
:1001F000F7030000DFF80CD009F0B2F80048004720
:100200000D04000060E600202C4B19680868B0E877
:10021000F04F80F30988BFF36F8F4FF0000080F339
:10022000118870470000000008480068006880F3EB
:1002300008884FF0000080F3148862B661B6BFF3FF
:100240004F8FBFF36F8F00DF00BF00BF08ED00E0EE
:10025000DFF80C00016841F470010160704700BFD5
:1002600088ED00E0EFF30980BFF36F8F134B1A683E
:100270001EF0100F08BF20ED108A20E9F04F10602B
:1002800009B44FF0500080F31188BFF34F8FBFF3D4
:100290006F8F01F0D4FD4FF0000080F3118809BC8E
:1002A00019680868B0E8F04F1EF0100F08BFB0ECF6
:1002B000108A80F30988BFF36F8F704730000020E9
:1002C000EFF305807047000004207146084202D019
:1002D000EFF3098001E0EFF308807146004A104710
:1002E000852D000010B503F0B0F9294A4FF0804386
:1002F0009060D3F8101201F00701022903D002F137
:100300000C0050F82100D3F8201201F00F01491C15
:10031000B0FBF1F01F49106008444900B0FBF1F058
:10032000506010BD1C48016841F4700101601B4819
:10033000C16C21F00F0141F00801C1644FF0804011
:10034000D0F8981241F48021C0F89812D0F8081221
:1003500041F00201C0F808121149D1F8042102F05D
:10036000F732C1F80421D1F8082102F0F732C1F8C0
:100370000821D0F8081221F00201C0F808124FF04D
:100380004020D0F8401121F0F001C0F84011704732
:100390000000002020A1070088ED00E000C0004020
:1003A0000010044014484FF0590101604FF016014D
:1003B00001604FF0880101601048416841F48041BC
:1003C00041600F48416841F002014160416841F0DD
:1003D000040141600B48804707484FF0000101606D
:1003E00009480047FEE7FEE7FEE7FEE7FEE7FEE717
:1003F000FEE7FEE7FEE7FEE70001004000020040E6
:100400000070004025030000F50100001CB500F05D
:1004100025F800210320CDE900010B464FF40072BE
:1004200034A1374801F0E2FA36A008F0F5FF01F0F8
:1004300001FEFEE73AA008F0EFFF502080F311889C
:10044000BFF34F8FBFF36F8FFEE77047502080F3ED
:100450001188BFF34F8FBFF36F8FFEE770B5592040
:10046000840716218822C4F80001C4F80011C4F8DA
:100470000021D4F80031002BF5D0012003F00EFA52
:10048000012003F09EF82E4803F0BEF91120C4F8B5
:1004900034022C4D284602F0D1FF2B4E304602F09C
:1004A000CDFF00221146284602F080FF00221146AF
:1004B000304602F07BFFFFF715FFE06B20F47F0072
:1004C000E063E06B40F4CC00E0634FF04020D0F8F4
:1004D000C01121F03F01491C41F01401C0F8C011C6
:1004E0000020C4F80001BDE870404FF4E131174826
:1004F00002F075BD4E65776F726B494600000000D3
:10050000870600004672656552544F532069732078
:100510007374617274696E67202E2E2E0A000000BB
:10052000764170706C69636174696F6E4D616C6C5B
:100530006F634661696C6564486F6F6B200A0000E9
:1005400000B0710B103D80570200805E0000074034
:1005500010B5044601220821784803F00FFC7849C1
:10056000E0430860012010BD4FF080410028C86EB4
:1005700020F0FF00C86610D0C86E40F0AA00C86620
:10058000C86B20F0FF00C863C86B40F06600C8630A
:1005900001220821694803F0F1BB086B20F0FF003D
:1005A0000863886E20F4704088667047654870471D
:1005B00070B588B0054604F093FD15282BD006DCF5
:1005C000002822D0012822D0062859D104E016287C
:1005D00048D0172854D12BE0012406250026684670
:1005E00004F07DFA58A008F017FF33462A4621464A
:1005F00064A008F011FF9DF802309DF801209DF8DD
:1006000000106BA008F008FF3AE072A000E077A0AD
:1006100008F002FF34E0284604F071FDC178437908
:1006200002798DE80E00837842780178764825E0DB
:10063000284604F060FD0446284604F05EFDA178DB
:1006400003AE65792379E27886E82E00C178637875
:1006500022788DE80E008378427801786B4808F0A4
:10066000DBFE0DE0284604F04CFDC17843790279A9
:100670008DE80E00837842780178654808F0CCFE5A
:1006800008B0002070BD10B586B062A008F0C4FEAE
:1006900067A008F0C1FE01216C4804F014F818B1FD
:1006A0006BA008F0B9FE1EE071A008F0B5FE0022B4
:1006B0004FF4613401231146204604F0F8F810B1DC
:1006C000214672A00DE0204607F005FF012400231B
:1006D0001A4621460220009404F0C1F848B10146B0
:1006E00072A008F099FE06B00020BDE8104008F0A6
:1006F00099B97CA008F090FE0020CDE90404052102
:10070000CDE900100290039003230A227EA181A06C
:1007100003F025FF10B983A008F07EFE4FF40070AF
:10072000CDE900040023864A86A1184608F06CF93A
:100730004FF47A74204604F0DAF9FBE7C041004038
:10074000CC4900400010074043757272656E7420FA
:1007500045535038323636204154207665727369DD
:100760006F6E206973206E6F7420737570706F7276
:10077000746564206279206C696272617279210DFE
:100780000A0000004D696E696D756D2072657175A6
:10079000697265642041542076657273696F6E20BA
:1007A00069733A2025642E25642E25640D0A000005
:1007B00043757272656E7420415420766572736958
:1007C0006F6E2069733A2025642E25642E25640DF2
:1007D0000A0000004C69627261727920696E697466
:1007E00069616C697A6564210D0A00004465766967
:1007F00063652072657365742064657465637465F0
:1008000064210D0A00000000409E00008C9D000045
:10081000E49D00005374617274696E672045535003
:10082000206170706C69636174696F6E210D0A00DC
:10083000496E697469616C697A696E6720455350C5
:100840002D4154204C69620D0A000000B1050000E2
:1008500043616E6E6F7420696E697469616C697A48
:1008600065204553502D4154204C6962210D0A00EA
:100870004553502D4154204C696220696E6974695A
:10088000616C697A6564210D0A00000043616E6E37
:100890006F74207365742062617564726174652081
:1008A000746F202564210D0A0000000050726F62F1
:1008B0006C656D732073657474696E672045535061
:1008C00020746F206163636573732D706F696E743C
:1008D0002D6F6E6C79206D6F64653A2025640D0A6A
:1008E000000000004553502073657420746F206130
:1008F00063636573732D706F696E742D6F6E6C79A1
:10090000206D6F64650D0A00313233343536373867
:10091000000000004553505F416363657373506F7F
:10092000696E740041636365737320706F696E74E0
:1009300020636F6E66696775726564210D0A000039
:10094000130B00006E6574636F6E6E5F7365727675
:100950006572000070B51D46144606460F2902DA7E
:100960004FF0FF3070BD08F07EFCB4F1402F0AD08C
:10097000A4F14020403804D08D48844205D18DA197
:100980001FE08EA11DE08FA11BE0A4F14020C03824
:1009900005D087488030844203D18CA111E08DA11D
:1009A0000FE08348C030844201D18CA109E08D481A
:1009B000844201D18CA104E08A484030844206D1AF
:1009C0008BA1304608F038FD0024012102E06FF0D1
:1009D000010070BD01FA04F0284208D0304608F04A
:1009E00069FC3044224684A108F026FD02E0641C24
:1009F000102CEFDB002070BD30B5054695B000240B
:100A00007FA008F009FD14A9284603F0D3FC58B1D3
:100A100014B1204606F0AEFF284603F090FA0020FD
:100A200008F000F815B030BD0121149807F0F4F873
:100A300001467BA008F0F0FC002C4ED02046149913
:100A400006F0B3FF00227FA1149807F0AAF8401C1B
:100A5000D9D000227DA1149807F0A3F8401C3ED005
:100A60007CA008F0D9FC3C21684608F0FCFBB822C9
:100A70007D49284603F0F2FB5A4A4FF40063403A9E
:100A800014210FA8FFF766FF784803680FAA78A122
:100A9000684608F0D1FC684608F00CFC024669463E
:100AA000284603F0DBFB20234E4A14210FA8FFF752
:100AB00051FF6E48283003680FAA6DA1684608F000
:100AC000BBFC684608F0F6FB02466946284603F080
:100AD000C5FB65492022B93114E0149CB2E700221D
:100AE0006BA1149807F05DF8401C06D06CA008F0CC
:100AF00093FC5D495C22DA3104E06FA008F08CFCC5
:100B000073492322284603F0A9FB284603F0B5F9D0
:100B10007FE7FEB5334800224FF40061403803F010
:100B20002DF9002220212F4803F028F9002003F09E
:100B30005AFA04003AD067A008F06EFC5021204613
:100B400003F029FB08B16AA00DE073A008F064FC73
:100B5000204603F051FB01256E0202A9204603F056
:100B60004DFB48B175A008F057FC204603F0E7F9AB
:100B7000002007F057FFFEBD79A008F04DFCCDE93D
:100B80000065854A85A10020029B07F03DFF18B152
:100B900084A008F041FCE0E78AA008F03DFC029840
:100BA00003F06BF9029803F0CAF9D6E790A0DAE7F0
:100BB00080400040506F7274433A0000506F72746E
:100BC000423A0000506F7274413A0000506F7274E4
:100BD000453A0000506F7274443A0000506F7274CE
:100BE000463A000080410040506F7274473A00005E
:100BF000506F7274483A000050696E25640000001E
:100C000041206E657720636F6E6E656374696F6EE9
:100C1000206163636570746564210D0A0000000043
:100C20004E6574636F6E6E206461746120726563DB
:100C300065697665642C2025642062797465730D7E
:100C40000A0000000D0A0D0A00000000474554206C
:100C50002F2000004D61696E20706167652072650C
:100C600071756573740D0A00EC9800006C490040C2
:100C70003C74723E3C74643E25733C2F74643E3C6D
:100C800074643E25643C2F74643E3C2F74723E00B5
:100C9000474554202F7374796C652E63737320005D
:100CA0005374796C65207061676520726571756534
:100CB00073740D0A00000000343034206572726FC6
:100CC00072206E6F7420666F756E640D0A000000EE
:100CD000239A0000536572766572206E6574636FA7
:100CE0006E6E20637265617465640D0A0000000019
:100CF0004E6574636F6E6E207365727665722063E5
:100D0000616E6E6F742062696E6420746F20706F04
:100D100072740D0A00000000536572766572206ED1
:100D20006574636F6E6E206C697374656E73206F8B
:100D30006E20706F72742038300D0A004E65746337
:100D40006F6E6E20636F6E6E656374696F6E206187
:100D50006363657074206572726F72210D0A000002
:100D60004E6574636F6E6E206E657720636C696587
:100D70006E7420636F6E6E65637465642E205374A9
:100D8000617274696E67206E657720746872656140
:100D9000642E2E2E0D0A0000F9090000636C6965AF
:100DA0006E7400004E6574636F6E6E20636C6965CF
:100DB0006E74207468726561642063726561746525
:100DC000640D0A004E6574636F6E6E20636C696516
:100DD0006E74207468726561642063726561746901
:100DE0006F6E206661696C6564210D0A0000000069
:100DF00043616E6E6F742063726561746520736504
:100E000072766572206E6574636F6E6E0D0A0000F7
:100E1000502080F31188BFF34F8FBFF36F8FFEE731
:100E200010B5031F4FF080741C601B1F21F00101DF
:100E30001960191F2E4B0B6014390A60091F6FF0DF
:100E4000020244380A6010BD4FF0E0200021016129
:100E5000816128494FF47A720968B1FBF2F1491EA9
:100E60004161072101617047234810B5016841F4D1
:100E700070010160016841F070410160FFF7E4FF1B
:100E80001E4900200860FFF7E3F91D48016841F0A2
:100E900040410160FFF7C8F9002010BD70475020A5
:100EA00080F31188BFF34F8FBFF36F8F1348016832
:100EB000491C0160704711490868401E086001D153
:100EC00080F31188704710B5502080F31188BFF36C
:100ED0004F8FBFF36F8F00F0F9FD20B106494FF03F
:100EE00080501C390860002080F3118810BD00007C
:100EF000110E00000000002020ED00E02C0000207A
:100F000034EF00E000F108014FF0FF32C0E90112B8
:100F1000C1600161002101607047002101617047DB
:100F200042684A6093688B60936859609160086179
:100F30000168491C0160704730B50C68621C02D022
:100F400000F1080202E0026904E01A4653681D68D5
:100F5000A542FAD953684B6099608A605160086174
:100F60000168491C016030BDD0E9013201699A6015
:100F7000D0E901235A604A68824201D182684A60FE
:100F8000002202610868401E08600868704700007F
:100F900070B50D460446FFF782FFD4E90F122068B2
:100FA00001FB020060600020A0632068A060014691
:100FB000E06B401E00FB0210E0604FF0FF3084F851
:100FC000440084F8450004F110004DB1FFF79AFF8A
:100FD00004F12400FFF796FFFFF76DFF012070BDBD
:100FE00021690029F8D001F058F90028F4D0F94916
:100FF0004FF080500860BFF34F8FBFF36F8FEBE768
:101000002DE9F04117460D00064617D006FB05F006
:10101000543001F039FE04000ED004F154007DB1CB
:101020002060C4E90F6520460121FFF7B1FF84F875
:10103000507000212046A164BDE8F0810020E7E760
:101040002460EEE72DE9F041856B17460446002643
:10105000026C82B1C7B1E06808F0ECF8E168206C7E
:10106000091AE1602268914202D26168081AE060C0
:10107000022F16D017E02068A8B9606801F0F2F9D5
:101080000646002060600EE0A06808F0D3F8216CEE
:10109000A0680844A0606168884204D32068A0600A
:1010A00001E005B16D1E6D1CA5633046C4E773B544
:1010B00000260098846CA06BE26B90420CD294F9ED
:1010C00045500A4669462046FFF7BCFF0646681CA5
:1010D00004D06D1C84F8455030467CBD606A002801
:1010E000FAD004F1240001F0D8F80028F4D0012649
:1010F000F2E72DE9F0410446FFF7D1FE94F945509F
:1011000004F1240610E0A06C20B100212046FFF776
:10111000CEFF04E0606A48B1304601F0BEF808B185
:1011200001F040F96D1E6DB2002DECDC4FF0FF3682
:1011300084F84560FFF7BFFEFFF7B1FE94F9445015
:1011400004F1100709E0206948B1384601F0A5F81C
:1011500008B101F027F96D1E6DB2002DF3DC84F8A3
:101160004460BDE8F041FFF7A6BE2DE9FF4F002621
:1011700083B09A468B460446B1464FF08057DFF85D
:101180005482FFF78CFEA06BE16B884206D3BAF164
:10119000020F03D0059800B316B325E05246594616
:1011A0002046FFF74FFFA16C21B151462046FFF7C3
:1011B0007EFF05E0616A19B104F1240001F06DF8C9
:1011C00028B1C8F80070BFF34F8FBFF36F8FFFF7E0
:1011D00072FE012007B0BDE8F08FFFF76CFE21E042
:1011E000684601F0B4F80126FFF765FE00F048FDFF
:1011F000FFF755FE94F94400401C01D184F8449057
:1012000094F94500401C01D184F84590FFF753FE46
:1012100005A9684601F0A1F830B12046FFF769FF43
:1012200000F0A8FC0020D5E7FFF739FEA06BE16BCA
:10123000884201D1012500E00025FFF73CFE95B171
:1012400004F11000059900F0F6FF2046FFF751FF6A
:1012500000F090FC002894D1C8F80070BFF34F8FC5
:10126000BFF36F8F8DE72046FFF743FF00F082FC4E
:1012700087E710B5024600210120FFF7C1FE041EDA
:1012800007D00021416001600B460A46C160FFF7AC
:101290006CFF204610BD10B5044601F08FF8616860
:1012A00088420BD1E068401EE06005D100231A4659
:1012B00019462046FFF759FF012010BD002010BD40
:1012C0002DE9F343002583B00446A9462E464FF08E
:1012D0008057DFF80081FFF7E2FDA06BC8B1401E28
:1012E000A063206810B901F037F96060206950B13F
:1012F00004F1100000F0D1FF28B1C8F80070BFF36E
:101300004F8FBFF36F8FFFF7D6FD012005B0BDE80B
:10131000F083049808B11DB106E0FFF7CCFD61E051
:10132000684601F014F80125FFF7C5FD00F0A8FCA0
:10133000FFF7B5FD94F94400401C01D184F84460E6
:1013400094F94500401C01D184F84560FFF7B3FDD6
:1013500004A9684601F001F80028204614D0FFF7E0
:10136000C8FE00F007FC204600F0CDFA0028B2D0FD
:10137000B9F1000F36D0FFF792FD606A60B3206BC1
:101380000068C0F1050129E000F0BDFAE0B1206875
:1013900038B9FFF784FD606801F01EF88146FFF759
:1013A0008AFD04F12400049900F045FF2046FFF770
:1013B000A0FE00F0DFFB00288DD1C8F80070BFF35D
:1013C0004F8FBFF36F8F86E72046FFF792FE00F046
:1013D000D1FB80E704ED00E0FFE70021606801F049
:1013E00074F89AE7002091E770B50D46044600F0C6
:1013F000E5FF6168884204D1E068401CE06001209C
:1014000070BD29462046FFF75BFF0028F8D0E16851
:10141000491CE16070BD10B50C4602220021FFF7A7
:10142000EFFD002800D0846310BD2DE9F041044693
:10143000984615465020EFF3118780F31188BFF3CB
:101440004F8FBFF36F8FA06BE26B904206D3B8F162
:10145000020F03D0002087F31188EDE594F9456071
:1014600042462046FFF7EEFD701C04D0761C84F83F
:1014700045600120EFE7A06C012620B141462046DF
:10148000FFF715FE06E0606A0028F2D004F12400A0
:1014900000F003FF0028ECD0002DEAD02E60E8E732
:1014A00070B50C465021EFF3118581F31188BFF31D
:1014B0004F8FBFF36F8F826BC16B91421DD990F933
:1014C0004510521C82634A1C04D0491C80F8451008
:1014D000012013E0816C012619B10021FFF7E7FD1F
:1014E00005E0416A0029F3D0243000F0D6FE002840
:1014F000EED0002CECD02660EAE7002085F31188BE
:1015000070BD30B4026C0B46002A0BD0C168114488
:10151000C1604468A14201D30168C16030BC184673
:1015200007F088BE30BC70472DE9F747002683B02E
:101530008A46044637464FF08058DFF8E493FFF7B9
:10154000AEFCA56BC5B151462046FFF7DAFF6D1E14
:10155000A563206950B104F1100000F09EFE28B18F
:10156000C9F80080BFF34F8FBFF36F8FFFF7A3FC65
:10157000012006B0BDE8F087059808B11EB106E06D
:10158000FFF799FC27E0684600F0E1FE0126FFF72F
:1015900092FC00F075FBFFF782FC94F94400401CBC
:1015A00001D184F8447094F94500401C01D184F8BD
:1015B0004570FFF780FC05A9684600F0CEFE0028C4
:1015C00020460AD0FFF795FD00F0D4FA204600F03F
:1015D0009AF90028B3D00020CBE700F094F990B13D
:1015E00004F12400059900F026FE2046FFF781FD56
:1015F00000F0C0FA0028A2D1C9F80080BFF34F8FD5
:10160000BFF36F8F9BE72046FFF773FD00F0B2FA40
:1016100095E72DE9F743002582B0894604462E461A
:101620004FF08057DFF8F882FFF739FCA06BB0B1BC
:1016300049462046E568FFF764FFE560606A50B1FF
:1016400004F1240000F029FE28B1C8F80070BFF3AF
:101650004F8FBFF36F8FFFF72EFC012056E60498E3
:1016600008B11DB106E0FFF726FC27E0684600F050
:101670006EFE0125FFF71FFC00F002FBFFF70FFCD9
:1016800094F94400401C01D184F8446094F9450069
:10169000401C01D184F84560FFF70DFC04A96846A1
:1016A00000F05BFE002820460AD0FFF722FD00F084
:1016B00061FA204600F027F90028B5D0002025E681
:1016C00000F021F990B104F12400049900F0B3FD79
:1016D0002046FFF70EFD00F04DFA0028A4D1C8F80F
:1016E0000070BFF34F8FBFF36F8F9DE72046FFF76A
:1016F00000FD00F03FFA97E72DE9F04104469046DF
:101700005020EFF3118780F31188BFF34F8FBFF3A1
:101710006F8FA66BEEB194F944502046FFF7F1FEAF
:10172000761EA663681C04D06D1C84F8445001200A
:1017300010E020690028FAD004F1100000F0ADFD9F
:101740000028F4D0B8F1000FF1D00121C8F8001042
:10175000EDE7002087F311886EE470B50446502051
:10176000EFF3118580F31188BFF34F8FBFF36F8FB5
:10177000A06B28B12046E668FFF7C3FE0120E660B3
:1017800085F3118870BD10B50446FFF788FBA46B84
:10179000FFF791FB204610BD10B50446FFF77FFB15
:1017A000D4E90E10441AFFF786FB204610BD806B6B
:1017B00070475C4A002102EBC1035B68834206D19B
:1017C000002042F8310002EBC10148607047491C1B
:1017D0000829F0D3704710B50446FFF7EAFF20460A
:1017E000BDE8104001F0A9BAC06C7047C1647047F1
:1017F00090F850007047806B08B1002070470120BE
:101800007047816BC06B814201D10120704700207D
:10181000704710B5434B002253F832401CB1521CA4
:10182000082AF9D310BD43F8321003EBC201486017
:1018300010BD10B500243B4A214602EBC1035B6892
:10184000834202D152F8314002E0491C0829F4D306
:10185000204610BD70B515460E460446FFF71FFB27
:1018600094F944100020491C01D184F8440094F9F3
:101870004510491C01D184F84500FFF71CFBA06B03
:1018800028B92A46314604F1240000F0F4FC204631
:10189000BDE870402DE400220421FFF7B1BB70B514
:1018A0000D460446FFF7FBFAA06C08B9A06B08B11F
:1018B000002401E0A5640124FFF7FDFA204670BD75
:1018C00010B50446806C884201D1A06B08B100209D
:1018D00010BDFFF7E4FA0020A064FFF7ECFA012046
:1018E00010BD08B500230A4669460093FFF71CFEA9
:1018F000009808BD08B500210A4600916946FFF727
:10190000FBFE009808BD10B50446FFF7C8FAA06BAF
:1019100020B10024FFF7CFFA204610BD0124F9E7DB
:1019200004ED00E08C0100202DE9F0410546FFF7B1
:10193000B6FAF84EB068401CB0603068F64F10B18F
:10194000706940B32DE03560B068012829D10024CA
:1019500004EB840007EB8000FFF7D4FA641C052C2D
:10196000F6D3ED486430FFF7CDFAEB487830FFF757
:10197000C9FAE9488C30FFF7C5FAE748A030FFF70D
:10198000C1FAE548B430FFF7BDFAE348643070634C
:101990001430B06305E03068E96AC06A884200D854
:1019A0003560706A0121401C70622864E86A3269FF
:1019B00081401143316100EB800007EB8000291D5D
:1019C000FFF7AEFAFFF777FA706900280CD030689D
:1019D000E96AC06A884207D2D0494FF08050086057
:1019E000BFF34F8FBFF36F8FBDE8F0812DE9FF5F2D
:1019F0008346DDE90E87994616468A46900001F037
:101A000043F905001AD0582001F03EF9040012D025
:101A100025630021CDE90241CDE900874B463246DE
:101A20005146584600F013FF2046FFF77DFF012086
:101A300004B0BDE8F09F284601F07FF94FF0FF3079
:101A4000F6E770B50446FFF72AFAB24D04B92C68E0
:101A5000201DFFF789FA58B9E06AAF4A00EB800110
:101A600052F8211021B90121814028698843286159
:101A7000A06A18B104F11800FFF776FA686A401CF2
:101A800068622868844208D1A348211DA030FFF76E
:101A900047FA6868401C686007E0A868401EA860B4
:101AA000204600F025FF00F016FFFFF704FA6869F2
:101AB00000280AD02868844207D198494FF0805006
:101AC0000860BFF34F8FBFF36F8F70BD2DE9F041FA
:101AD000904F0026386B38B1B869401CB861F8697E
:101AE00000B1012630467FE7FD686D1CFD6008D11E
:101AF000786BB96B7963B863386A401C386200F060
:101B0000EAFEB86ADFF81082854209D3786B006874
:101B100080B1786BC068C468606885420DD2B862D5
:101B20003868C06A00EB800158F821000128D6D936
:101B30000126D4E74FF0FF30F1E7201DFFF714FA3C
:101B4000A06A18B104F11800FFF70EFAE06A01214B
:101B50003A6981401143396100EB800108EB810053
:101B6000211DFFF7DDF9E06A3968C96A8842CDD3E3
:101B70000126CBE72DE9F04700242746FFF78FF930
:101B8000644D286B401E2863286BE0BBA86862493F
:101B90008C310126B8B3DFF880918846D8F8001060
:101BA000E9B1D8F80C00C46804F11800FFF7DCF9BB
:101BB000201DFFF7D9F9E06A2A6906FA00F11143FE
:101BC000296100EB800109EB8100211DFFF7A8F9D5
:101BD000E06A2968C96A8842E0D3EE61DEE70CB1A9
:101BE00000F079FEAC693CB1FFF770FF00B1EE6127
:101BF000641EF9D10020A861E86920B14749012796
:101C00003807086000E003E0BFF34F8FBFF36F8F2A
:101C1000FFF751F93846BDE8F0872DE9F0413D4E18
:101C20000F460446F5683068001DFFF79DF938B986
:101C3000306890F82C10012088403169814331616F
:101C4000601C08D13FB13168BDE8F0413248B43082
:101C5000091DFFF765B930682C44AC424460316817
:101C600005D2B06BBDE8F041091DFFF765B9706B97
:101C7000091DFFF761F9B06A844200D2B462B3E68D
:101C80002448016B491C0163704770B50E46054638
:101C90000023FFF7F5FF1F48C2682C68A119944282
:101CA00002D98C4202D804E08C4201D8914200D97A
:101CB000012329601BB1881A0021FFF7AEFFFFF74F
:101CC00059FF002807D115494FF080500860BFF335
:101CD0004F8FBFF36F8F70BD10B5020009D0FFF7B3
:101CE000CFFF00211046FFF798FFFFF743FF0028C2
:101CF00007D10A494FF080500860BFF34F8FBFF300
:101D00006F8F10BD70B5034E05463068854207D110
:101D1000002070BD30000020CC01002004ED00E068
:101D2000FFF7BDF86C69FFF7C6F8706B844202D00C
:101D3000B06B844201D10220EBE7F748844204D122
:101D4000A86A0028F7D10320E3E7F3481438844257
:101D500002D00CB10120DCE70420DAE710B504461C
:101D6000FFF79DF80CB9ED480468E46AFFF7A3F8A3
:101D7000204610BD5022EFF3118182F31188BFF38A
:101D80004F8FBFF36F8F08B9E4480068C06A81F3D2
:101D9000118870472DE9F04100260D4604460529BB
:101DA00000D30425FFF77BF8DC4F04B93C68A06C36
:101DB000A84240D03968854206D98C4207D039689C
:101DC000C96AA94202D902E08C4200D10126E16A27
:101DD0008846884200D1E562A564A069002802DB3C
:101DE000C5F10500A061CC4D08EB8800B43D6169E8
:101DF00005EB8000814215D1201DFFF7B5F80121C8
:101E000020B93A6901FA08F082433A61E06A3A6916
:101E100081401143396100EB800005EB8000211DFA
:101E2000FFF77EF83EB1BE494FF080500860BFF327
:101E30004F8FBFF36F8FBDE8F041FFF73CB8B74A53
:101E4000106B10B10120D06170470020D061106983
:101E5000B149B0FA80F0C0F11F0000EB8000B43946
:101E600001EB800000F10803416849684160994234
:101E700001D149684160C8681060704770B5044678
:101E8000FFF70DF8A54D04B92C68201DFFF76CF87D
:101E900060B9E06AA04900EB8002B43951F8221021
:101EA00021B901218140286988432861A06A18B1BD
:101EB00004F11800FFF758F8211D9748FFF730F894
:101EC00094F854000026012801D184F85460FEF7EC
:101ED000F2FF686928B1FEF7E2FF00F0FCFCFEF7B4
:101EE000EAFF2868844209D1686940B18C494FF003
:101EF00080500860BFF34F8FBFF36F8F09E78648AC
:101F00000068A968884201D12E6002E7BDE87040F0
:101F100095E770B504002CD0804D2868844228D005
:101F2000FEF7BDFF204600F0EDFCF0B1201DFFF7ED
:101F30001BF8E06A01212A69814011432961764931
:101F400000EB8000B43901EB8000211DFEF7E8FFB3
:101F5000E06A2968C96A884207D371494FF0805006
:101F60000860BFF34F8FBFF36F8FBDE87040FEF77F
:101F7000A2BFCEE62DE9F041044600265020EFF343
:101F8000118580F31188BFF34F8FBFF36F8F204609
:101F900000F0B8FCF8B1614F386B20B15E4804F135
:101FA0001801283815E0E06A3968C96A884200D308
:101FB0000126201DFEF7D8FFE06A01213A69814021
:101FC00011433961544900EB8000B43901EB8000C2
:101FD000211DFEF7A5FF85F31188304604E54E4E1E
:101FE0004E4D143EA6F1A0074FF08058DFF8309117
:101FF00011E0FEF754FFF068C468201DFEF7B4FF3F
:10200000A868401EA8606868401E6860FEF753FF1D
:10201000204600F06DFC68680028EAD13868012885
:1020200005D9C9F80080BFF34F8FBFF36F8FFEF75C
:102030000CFAF0E71CB5394800242C30CDE90040FB
:102040002346322237A13948FFF7D0FC012815D1A9
:1020500000F0DAFC012811D1502080F31188BFF381
:102060004F8FBFF36F8F2D484FF0FF3181620121F9
:102070004161C460BDE81C40FEF7F6BE1CBD5020A7
:1020800080F31188BFF34F8FBFF36F8F2349002078
:102090004861FEF703BF2148C06870471F48C06809
:1020A00070471E488068704708B91C480068343083
:1020B00070472DE9F0410C4618491746A8B105466E
:1020C00005F13400C4E90050E86A2061286BE06142
:1020D000286CA0600026A86CC4E90506052B12D068
:1020E0000868854203D1267311E00D68E8E7237381
:1020F000032B0CD1FFF7C4FDA86A08B1022020739E
:10210000FFF738FD03E02846FFF7FCFD2073BFB161
:102110000021286B0EE0000080020020300000202B
:1021200004ED00E049444C4500000000DF1F0000C2
:10213000401C491C0278A52AFAD08808208453E460
:10214000268451E42DE9F0478146086892460C4602
:102150000025F8B1486801F1080640684860B042BF
:1021600001D140684860D0F80C80606842686260C5
:10217000B24201D151686160606805EBC50109EBAD
:102180008101C768534601223846FFF792FF6D1C54
:102190004745EAD128463EE52DE9F04717460A466D
:1021A000064600240525FFF76BFDDFF85484D8F8B8
:1021B000080082423BD3DFF84C946D1E05EB85018D
:1021C00004EBC40009EB810106EB80000122FFF75C
:1021D000B9FF0444002DF0D104EBC40006EB8000ED
:1021E00002224546D8F83410FFF7ACFF044404EB54
:1021F000C40006EB80000222A96BFFF7A3FF044492
:1022000004EBC40006EB80000422FE49A031FFF776
:1022100099FF0444FB4904EBC40006EB8000032251
:10222000B431FFF78FFF04440FB100203860FFF78F
:10223000A1FC2046EFE4024610B5F1480C460168C7
:1022400010461831FEF778FE2046BDE81040012107
:10225000E3E4034641F0004010B5E94914460A683A
:102260009061096818461831FEF75AFE2046BDE80D
:1022700010400121D1E470B515460246E0480C46F5
:10228000016810461831FEF74BFE0DB14FF0FF34D8
:1022900029462046BDE87040BFE42DE9F041C06802
:1022A000C46804F118000746FEF75EFED44D286BA3
:1022B000012660B1D34839468C30FEF731FEE06A22
:1022C0002968C96A884212D90120EE610BE4201DF9
:1022D000FEF74AFEE06A2A6906FA00F11143296115
:1022E000C84900EB800001EB8000211DE5E70020DC
:1022F000C5E470B541F000410160C468FEF734FEEA
:10230000201DFEF731FEBE4DE06A01262A6906FA5D
:1023100000F111432961BB4900EB800001EB800013
:10232000211DFEF7FDFDE06A2968C96A884200D9CF
:10233000EE61EEE410B50446FEF7B1FDB048016A67
:102340002160C0686060BDE81040FEF7B4BDAC49D4
:102350000A6A0260C968416070472DE9F0410C4685
:102360000546FEF79CFDA64EF2686B682068D11A00
:10237000471C07D02F68366AB74208D0934206D868
:10238000012400E00024FEF796FD204677E4884211
:1023900005D9401A20602846FFF7D9FFF2E7002050
:1023A0002060EDE796490120C8617047002800D001
:1023B000406C7047002800D0416470479048006826
:1023C00070478F48416919B1006B18B10020704700
:1023D000012070470220704770B504004FF00000E4
:1023E00039D0874DE16A2A68D26A914234D2A06915
:1023F000002804DB2868C06AC0F10500A061E06A1B
:10240000804E00EB8000616906EB800081421ED1A6
:10241000201DFEF7A9FD012150B9E06A00EB800202
:1024200056F8222022B92A6901FA00F082432A6173
:102430002868C06AE0622A6981401143296100EB83
:10244000800006EB8000211DFEF76AFD02E028688F
:10245000C06AE06201205CE4A16C2A68D26A914201
:10246000F8D356E470B504004FF000002CD0E16CB6
:10247000491EE164A36CE26A9A4225D0002923D167
:10248000201DFEF771FD5F4A5D49012350B9E06AE6
:1024900000EB800552F8255025B90D6903FA00F0CC
:1024A00085430D61A06CE062C0F10500A061E06AA7
:1024B0000D6983402B430B6100EB800002EB800031
:1024C000211DFEF72DFD012023E470B50A4604000E
:1024D00037D0A16C914200D21146E06A884230D0D8
:1024E000E26C012A2DD1E162A269002A02DBC1F16E
:1024F0000501A161434D00EB8000616905EB80009F
:1025000081421ED1201DFEF72FFD3D49012250B909
:10251000E06A00EB800355F8233023B90B6902FA17
:1025200000F083430B61E06A0B6982401A430A6141
:1025300000EB800005EB8000211DBDE87040FEF738
:10254000EFBC08E42E4908680A688069D26A096805
:10255000C2F105028A6170472949086818B1086804
:10256000C26C521CC2640868704770B50C460646BF
:10257000FEF795FC224D2868006D80B9296801207E
:1025800081F854005CB101212046FFF746FB1E494B
:102590004FF080500860BFF34F8FBFF36F8FFEF78F
:1025A0008AFCFEF77CFC2868046D002034B116B16B
:1025B0002968086502E02A68611E1165296881F8AA
:1025C0005400FEF778FC204698E42DE9F0411E46C1
:1025D000154688460746FEF762FC094C206890F8CD
:1025E000540002281CD02068016DB94301652168A0
:1025F000012081F854009EB10121304606E0000020
:1026000030000020CC01002004ED00E0FFF705FBC6
:10261000C4494FF080500860BFF34F8FBFF36F8FF6
:10262000FEF749FCFEF73BFC15B12068006D286001
:10263000206890F85400022801D0002505E02068A9
:10264000016D21EA0801016501252168002081F85A
:102650005400FEF730FC2846C0E42DE9F0411F4647
:1026600090460D4604460126FEF719FC0FB1206D79
:10267000386094F85400022184F85410B8F1050F22
:102680000ED2DFE808F00D03060C0A00216D294385
:1026900001E0216D491C216502E0022803D0256577
:1026A000012802D020E000261EE0201DFEF75CFC81
:1026B0009D4DE06A01212A698140114329619B49AE
:1026C00000EB800001EB8000211DFEF729FCE06A91
:1026D0002968C96A884207D992494FF0805008603A
:1026E000BFF34F8FBFF36F8FFEF7E5FB304675E406
:1026F0002DE9F04704464FF001085020EFF3118513
:10270000DDF8209080F31188BFF34F8FBFF36F8FF8
:102710000BB1206D186094F85400022384F85430F3
:10272000052A0ED2DFE802F00D03070C0A00226D25
:102730000A43226505E0216D491C01E0022803D00F
:102740002165012803D028E04FF0000825E0764EEF
:10275000306B012780B1754804F118018C30FEF709
:10276000DFFBE06A3168C96A884216D9B9F1000F07
:1027700012D0C9F8007010E0201DFEF7F5FBE06AEA
:10278000326907FA00F111433161684900EB8000BA
:1027900001EB8000211DE2E7F76185F311884046D7
:1027A000F9E42DE9F041044688465020EFF3118703
:1027B00080F31188BFF34F8FBFF36F8F94F85410DD
:1027C000022084F85400206D401C2065012925D189
:1027D000554D286B012680B1544804F118018C3006
:1027E000FEF79EFBE06A2968C96A884216D9B8F1EB
:1027F000000F12D0C8F8006010E0201DFEF7B4FBF7
:10280000E06A2A6906FA00F111432961474900EBA1
:10281000800001EB8000211DE2E7EE6187F3118863
:102820008DE410B558B10446FEF739FB94F8540016
:10283000022807D00024FEF73EFB204610BD3A4890
:102840000468F1E7002084F854000124F3E72DE93F
:10285000F0470E46DDE90984174682469100994605
:10286000089DA522206B06F0F7FC6FF00301206B9A
:1028700001EB8701084420F0070700202218315C93
:1028800082F83410315C11B1401C0A28F6D30026BE
:1028900084F83D60052D00D30425E562C4E9125695
:1028A000201DFEF73AFB04F11800FEF736FB246109
:1028B000C5F105006462A061266584F854604A464B
:1028C00051463846FEF7ACFA2060B8F1000F01D04F
:1028D000C8F800405FE41448416B096829B1416BB6
:1028E000C968C9684968816270474FF0FF31FAE7EB
:1028F00010B50446006B00F020FA2046BDE81040F9
:1029000000F01BBA094B42690021B4339A4206D148
:10291000806AA3F12802904201D000B90121084643
:102920007047000004ED00E030000020CC010020E2
:1029300070B500244160CC4D0061914206D8D11A97
:102940008269914206D2011D286907E09A4203D2AA
:10295000994201D3012403E0011DE868FEF7ECFA77
:10296000204670BDFEB5C04D1F4603462C680020B2
:10297000089E002C0ED08DE80E0006290DDAFFF718
:1029800020FD02284FF0000305D000226946286888
:10299000FEF7EBFBFEBD3246F8E700233A466946F8
:1029A0002046FEF742FDFEBDAF4CE068016839B13C
:1029B000002139B1002000F0CDF800F083F8F4E7F1
:1029C0000121F6E7C0680068F5E710B5FEF767FA81
:1029D000A54C2068A0B9A548FEF794FAA348143086
:1029E000FEF790FAA148E0601430206100220C212B
:1029F0000A20FEF705FB206010B19DA1FEF709FF3C
:102A0000BDE81040FEF757BA1CB50024FFF7DDFF04
:102A10009548006858B194490220091DCDE900018C
:102A20000023642294A19648FEF7E0FF0446204666
:102A30001CBD2DE9F04706461F46154688462C204A
:102A4000DDF8209000F020F904000BD0FFF7BDFF67
:102A500004F11C01C4F81880266081E8A002201D42
:102A6000FEF75BFA2046BDE8F0877F484068704774
:102A700080697047406870470068704710B5044629
:102A8000FEF70DFA606908B1012400E00024FEF7AA
:102A900012FA204610BD10B50446FEF700FA246A6B
:102AA000FEF709FA204610BD70B50D460446FEF744
:102AB000F6F92562BDE87040FEF7FDB9806A7047FF
:102AC0008162704730B585B0674D3AE001980028C3
:102AD00037DB039C606910B1201DFEF745FA04A89E
:102AE00000F085F8024601980A282AD2DFE800F0B3
:102AF000050505291E260505291E0298A16903461C
:102B000001442046FFF714FFD8B1616A2046884788
:102B1000E069012815D1002000900298A1690023E6
:102B2000421819462046FFF71DFF0AE00298A061EF
:102B3000811813462046FFF7FBFE02E0204600F016
:102B4000FCF8002201A92868FEF7EEFC0028BDD1A0
:102B500005B030BD2DE9FC410E460546FFF790F863
:102B600001A800F044F80446019818B1FFF702F8F4
:102B7000BDE8FC813C4FAEB138690068A0B30026C7
:102B8000291B32463868FEF765FEFEF7F3FF002882
:102B9000EED13C494FF080500860BFF34F8FBFF338
:102BA0006F8FE5E7A542EBD8FEF7E4FFF86826460D
:102BB000C068C468201DFEF7D7F9E06901280FD16D
:102BC000A0692B46411932462046FFF7B1FE38B1C5
:102BD00000200346014600902A462046FFF7C2FE29
:102BE000616A20468847C3E7FFE70126C8E770B55A
:102BF0000546FFF750FA1C4E0446B068844203D2E3
:102C000000F007F8012000E0002028602046B460B2
:102C100070BDF8B5144E1EE0C068C4680568201D7C
:102C2000FEF7A2F9616A20468847E069012812D1BF
:102C3000A0692844A84206D924616060211DF0687B
:102C4000FEF77AF907E000200346014600902A4685
:102C50002046FFF787FEF06801680029DCD1316962
:102C6000C6E90310F8BD00006C00002094020020AB
:102C7000546D725100000000546D72205376630051
:102C8000A929000004ED00E02DE9F04104460025EB
:102C9000FEF7F6FF394E06F10801706801F10803EE
:102CA00068B93748002720F00700C1E900074BF654
:102CB000F872C3E90072C0E90032012070603CB1D3
:102CC0000834600704D004F00700C0F10800044491
:102CD000601E4BF6F772904227D2284A09680832E4
:102CE00001E00A4601464868A04202D2086800286E
:102CF000F7D1994219D015680868106048680835FE
:102D0000001B10280DD90B1958601C484C60083066
:102D10005C6800E0104602685768A742FAD31A6060
:102D2000036048683168081A3060FEF723FF0DB968
:102D3000FDF780FB2846BDE8F08110B5002817D0CC
:102D4000A0F10804FEF79CFF0C496068083100E020
:102D500011460A6853688342FAD3226007480C6020
:102D60006168026811440160BDE81040FEF702BFCF
:102D700010BD0248006870477047000080000020C6
:102D8000C402002004462AA006F046FB204600F0BC
:102D90001DF8FEE72C488069C0F3803070472A4850
:102DA0008069C0F30070704700F034B810B5044675
:102DB00000F030F8204610BD234881694904FCD456
:102DC0000068C0B270474FF0FF30704710B504463E
:102DD00001681EA006F020FB1FA0616806F01CFB26
:102DE00020A0A16806F018FB21A0E16806F014FB02
:102DF00022A0216906F010FB23A0616906F00CFBFC
:102E000024A0A16906F008FBE169BDE8104024A0F8
:102E100006F002BB0C498A691202FCD408600A2839
:102E200004D188690002FCD40D20086070470000BE
:102E3000496E2048617264204661756C7420486157
:102E40006E646C65720A000000000740723020203A
:102E50003D20307825780A00723120203D203078DE
:102E600025780A00723220203D20307825780A002B
:102E7000723320203D20307825780A0072313220CC
:102E80003D20307825780A006C7220203D20307873
:102E900025780A00706320203D20307825780A00CC
:102EA000707372203D20307825780A004FF0804101
:102EB0004A6802434A6070474FF080408069C0F31F
:102EC000801070474FF08040406870474FF080405E
:102ED000D0F8000140F30000401C70474FF08040E4
:102EE000006870474FF08040816841F001018160C7
:102EF00070474FF08040816841F002018160704767
:102F00000121194A814002EB106002680A438A439A
:102F1000026070474FF08042936943F00103936170
:102F2000936923F0080303439361906920F4E02040
:102F30000843906170474FF08040816921F00101A2
:102F4000816170474FF08041D1F8F82122F00302EF
:102F50000243C1F8F82170474FF080418A6A22F09D
:102F60001F0202438A627047080000404A0503D5E9
:102F700070228261082282610A0503D5426942F00B
:102F8000010242618A0401D5F74A82614A0401D5EF
:102F90001F224264090404D58021C16140F20F312F
:102FA00081637047002141607047416821F44051BE
:102FB0004160704742688A4342607047016941F44A
:102FC00000710161416941F480714161416841F4DE
:102FD00040514160704742680A43426070472DE9A2
:102FE000FF410446E1480F4600250FC88DE80F0059
:102FF000DF492E464FF080408C4206D1D0F81412A3
:10300000D0F82002C1F301652AE0DA498C4206D1EA
:10301000D0F81412D0F82002C1F381652BE0D64914
:103020008C4208D1D0F81C12D0F83002C1F30165EF
:1030300000F00F0621E0D1498C4208D1D0F81C12D3
:10304000D0F83002C1F38165C0F3031615E0CC4916
:103050008C4208D1D0F81C12D0F83002C1F30175AF
:10306000C0F3032609E0C7498C4206D1D0F81C12F0
:10307000D0F830028D0FC0F3033600202063032008
:10308000E060A068C0490840A060E846012D02D178
:1030900000F0DBFA0190002F1AD058F82510761CAA
:1030A000B1FBF6F000EB5700B0FBF7F0801EB0F577
:1030B000803F0AD3B1FBF6F000EBC700B0FBF7F09E
:1030C0006FF0010101EB101001E040F04050606230
:1030D000BDE8FF81F0B50446002630464FF080453C
:1030E0000CE0002302E05B1CAB4209D2A7697F041D
:1030F000F9D4002E04D123680B54401C9042F0D325
:10310000F0BD2DE9FF5F044698489A46103091467D
:103110000F460FC8DDF838B08DE80F000025944940
:103120002E464FF08040E8468C4206D1D0F814126B
:10313000D0F82002C1F301652AE08E498C4206D105
:10314000D0F81412D0F82002C1F381652BE08A492F
:103150008C4208D1D0F81C12D0F83002C1F30165BE
:1031600000F00F0621E085498C4208D1D0F81C12EE
:10317000D0F83002C1F38165C0F3031615E0804931
:103180008C4208D1D0F81C12D0F83002C1F301757E
:10319000C0F3032609E07B498C420BD1D0F81C1206
:1031A000D0F830028D0FC0F30336012D02D100F0AC
:1031B0004CFA0190D7B158F82510761CB1FBF6F007
:1031C00000EB5700B0FBF7F0801EB0F5803F0AD34C
:1031D000B1FBF6F000EBC700B0FBF7F06FF00101B8
:1031E00001EB101001E040F04050606249EA0A0033
:1031F00040EA0B00E060BDE8FF9F026A22F0FF0298
:103200000A430262416841F40061416070472DE960
:10321000FF4704465548914620300F460FC88DE8B9
:103220000F00002502202E46206351494007E84642
:103230008C4206D1D0F81412D0F82002C1F30165F7
:103240002AE04C498C4206D1D0F81412D0F8200262
:10325000C1F381652BE048498C4208D1D0F81C129B
:10326000D0F83002C1F3016500F00F0621E04349B8
:103270008C4208D1D0F81C12D0F83002C1F381651D
:10328000C0F3031615E03E498C4208D1D0F81C1259
:10329000D0F83002C1F30175C0F3032609E03949C3
:1032A0008C420BD1D0F81C12D0F830028D0FC0F335
:1032B0000336012D02D100F0C8F9019087B158F80A
:1032C0002500761CB0FBF6F000EBC700B0FBF7F072
:1032D0006FF0010101EB1010090C884200D260620E
:1032E000A06AB9F1000F08D020F02000A062A06A07
:1032F00040F00200A062BDE8FF8740F04000A062FD
:10330000A06A20F00200F5E710B503230363C36A47
:103310001E4C2340C362C36A41EA02610B43C3628D
:1033200010BD01230363C36A23F0CF03C362C36AE2
:1033300011430B43C3627047F0B504460026304684
:103340004FF080450CE0002302E05B1CAB4209D249
:10335000A769FF00F9D5002E04D10B5C2360401C47
:103360009042F0D1F0BD000001000001489A000039
:1033700000000740001007400020074000300740D1
:1033800000400740005007400FFFF0FFFFF8FF002C
:1033900000F01F0201219140FE4A800F02EB8000E5
:1033A00002688A4302607047FB48F1E7F0B510F409
:1033B0007F3F30D04FF08043D3F8F431DFF8D4C3EF
:1033C000DFB2F44B0CF1280C1C33C0F381446FEADC
:1033D00090450CF1040603EB8403012F02D0022C6C
:1033E0000DD001E0022C02D0AC070AD00AE0C343A2
:1033F000DC06EA4B06D000F01F041D2C02D0634609
:1034000000E033461C68C0F38725C0F34416B5407E
:10341000AC4314431C60420E52070ED0DD4BC0F388
:1034200001720C3303EB82021368C0F34264C0F3F1
:1034300004508440A3430B431360F0BD00F01F020F
:1034400001219140D34A800F02EB800002680A43B9
:103450000260704741EA421110B54FF0804241F0DE
:1034600010010346C2F86012CB4C2046FFF7E6FF7E
:103470002046BDE810400022194697E7C848016879
:1034800041F0040101608006D0F8001241F0800193
:10349000C0F8001250F8F01F026822F00302026028
:1034A00030BF01607047BE48016821F0040101602F
:1034B0008006D0F8001221F08001C0F8001230BF61
:1034C00070474FF08040D0F80002C00700D0B548E8
:1034D00070474FF08040D0F80002800702D54FF4CB
:1034E000004070470020704710B5FCF7FBFE4FF01E
:1034F0008041D1F834024207AB4817D0D1F83422CA
:1035000002F00702012A13D0D1F8342202F0070298
:10351000022A10D0D1F8342202F00702032A0DD07B
:10352000D1F8341201F0070104290AD0006810BD57
:103530000068400810BD0068800810BD0068C00821
:1035400010BD0068000910BD10B5FCF7CBFE4FF0B0
:103550008041D1F8340210F0700F934817D0D1F8A1
:103560003422C2F30212012A13D0D1F83422C2F35A
:103570000212022A10D0D1F83422C2F30212032A16
:103580000DD0D1F83412C1F3021104290AD0006819
:1035900010BD0068400810BD0068800810BD0068BC
:1035A000C00810BD0068000910BD10B5FCF79AFEF8
:1035B0007D48006810BD10B5FCF794FE7A4800689D
:1035C00010BD30B5012405467849A20705E0081E64
:1035D000A1F1010101DC002404E0D2F8503235EA07
:1035E0000300F4D1204630BD2DE9F0414FF0804476
:1035F0000746D4F850020E4600F01005D4F8000239
:1036000040F00400C4F80002102004F50074FFF735
:10361000D8FF206940F007002061206A20F00F00E9
:1036200030432062206920F0070038432061A4F570
:103630000074FCF757FE002D05D1D4F8000220F0ED
:103640000400C4F80002BDE8F08108B558A10020CC
:10365000096800914FF08041D1F8401211F4A02F79
:1036600013D150488A0310D4C1F30800C1F381324A
:10367000504B801C1DF80220C1F344215843491CC3
:1036800011FB02F1B0FBF1F0C00008BD4FF080402B
:10369000D0F8401241F48031C0F8401270472DE953
:1036A000F84F0E460446FFF7F1FF4FF080403D4DC6
:1036B000D0F80012C4B141F00401C0F8001210208B
:1036C000FFF77FFF4FF4002000903B483B49304418
:1036D000AB4688427CD84FF000094FF0FF31CC4612
:1036E0004F46B646012515E041F00101C0F8001231
:1036F0000120FFF766FF0020E6E7D1B3032D35D0A8
:10370000042D02D0022D05D102E04FEA8E0601E021
:103710004FEA4E06022249B3BBFBF2F0284B284C7D
:1037200003446442A3421ED80224C0F35D0A224B24
:103730000AFB04F000EB0308224B98450ED8B0EBCF
:10374000960F02D9A0EB960001E0C0EB96008842EC
:1037500004D201009146A4462F4604D040F2012035
:10376000641C8442E3D9521C202AD4D96D1C042D38
:10377000C3D91548009900EB8730144A084302EB7F
:1037800049210843ACF1020108434FF08041C1F8E0
:1037900040021EE0040200400600C057280200401C
:1037A00010ED00E0001BB7000000002080F52000B5
:1037B00001020204C0C62D00800F05FD8074D21ADC
:1037C00000F7C2FFC068780400C0FFFF00FEFFFFE3
:1037D0000BE00420FFF7F5FE07FB09F7BBFBF7F052
:1037E00000FB0CF04000BDE8F88F54B1A2494FF047
:1037F0008040C0F840120420FFF7E3FEBDE8F84F18
:1038000023E744F21E21F2E770B54FF080440646EC
:10381000D4F8500200F010059848864200D90646B8
:10382000D4F8000240F00400C4F80002102004F5AF
:103830000074FFF7C6FE206940F007002061206A8F
:1038400020F00F0020622068A4F50074C007314604
:1038500004D00020FFF723FF064608E04FF40020C5
:10386000FFF71DFF0646D4F8500200F010050021B6
:103870000220FFF7B9FE2DB9D4F8000220F00400B1
:10388000C4F80002304670BD4FF08041D1F81022DC
:1038900022F038020243C1F8102270474FF08041F5
:1038A000D1F800220243C1F8002270474FF0804156
:1038B000D1F800228243C1F80022704730B54FF0A2
:1038C000E0220025156104280FD04FF08043D3F883
:1038D000104224F038040443C3F81042516195614A
:1038E000106940F00300106130BD106940F0040021
:1038F0001061F3E74FF0E02100200861704730B518
:103900004FF080450446D5F8F401C0B2012804D038
:10391000042C16D0052C14D01CE0042C02D0052C4D
:1039200007D017E0D5F8900220F0700040F01000AA
:1039300004E0D5F89002042420F07000C5F890024D
:1039400008E0D5F8000240F00800C5F800020820A1
:10395000FFF737FED5F8900220F007002043C5F8A6
:10396000900230BD4FF08041D1F8F421D2B2D1F8AD
:10397000902222F440320243C1F8902270474FF067
:103980008040D0F89402704730B53D4C04EB800085
:10399000046840F2F715AC4344EA0111114319439E
:1039A00041F00101016030BD1FB536491EC98DE8E7
:1039B0001E00354A9106904205D1D1F8180200F058
:1039C000010004B010BD314A904204D1D1F8180270
:1039D000C0F34000F5E72E4A904204D1D1F8180216
:1039E000C0F30020EDE72B4A904204D1D1F8180231
:1039F000C0F34020E5E7410E49070FD0C0F3017244
:103A00005DF822101E4A903A8958C0F34262C0F312
:103A100004508240114021FA00F0D2E70020D0E7A4
:103A20001FB51849103110F47F3F1EC98DE81E00E4
:103A30001FD0C0F381425DF82210114A803A114430
:103A40005206D2F8F421D2B2012A08D1C243124B55
:103A5000D20603D000F01F021D2A00D119460968C2
:103A6000C0F38722C0F344108240114021FA00F0D5
:103A7000A7E70020A5E700001E42080000B0710B78
:103A8000A0020040789A0000100000A2110010A2CD
:103A9000120080A2130090A22802004070B50022FC
:103AA000B34D0126134606FA02F40C4203D000EB94
:103AB00002142360AB54521C102AF4D3D0F8002413
:103AC0000A43C0F8002470BD0021C0F800147047FC
:103AD00010B500EB011001684CF6FF742140016045
:103AE0000168A44C04EB034313431943016010BD68
:103AF00070B500EB0114049D266846F4004626606C
:103B0000521E5B1E00EBC10043EA0242C0F80425CE
:103B10006D1EC0F8005570BD70B500EB0114049D1A
:103B2000266846F40046266000EBC10043EA0242E4
:103B3000C0F80026C0F8045670BD30B500EB011087
:103B4000DDE9034542608460016821F47061016031
:103B500001682B431943016030BD30B5844D039C8F
:103B600010296A547DD2DFE801F008101720272FB2
:103B7000363F464E555E656D7489D0F8805425F009
:103B80007F051543C0F880546BE0D0F8805425F4CD
:103B9000FE4545EA022205E0D0F8805425F4FE05F2
:103BA00045EA0242C0F880245BE0D0F8805425F05A
:103BB000FE4545EA0262F5E7D0F8845425F07F051A
:103BC0001543C0F884544CE0D0F8845425F4FE45E5
:103BD00045EA022205E0D0F8845425F4FE0545EAC2
:103BE0000242C0F884243CE0D0F8845425F0FE451D
:103BF00045EA0262F5E7D0F8885425F07F051543C1
:103C0000C0F888542DE0D0F8885425F4FE4545EAE4
:103C1000022205E0D0F8885425F4FE0545EA024268
:103C2000C0F888241DE0D0F8885425F0FE4545EA08
:103C30000262F5E7D0F88C5425F07F051543C0F8F3
:103C40008C540EE0D0F88C5425F4FE4545EA02224F
:103C500005E0D0F88C5425F4FE0545EA0242C0F890
:103C60008C2400EB0110016821F003016BB1891C69
:103C7000016041490968611AC16030BDD0F88C54B7
:103C800025F0FE4545EA0262E9E7491C016030BDC6
:103C900000EB0110016821F07401016001681A4312
:103CA000114301607047D0F834240A43C0F834242B
:103CB0007047D0F834248A43C0F83424704710B5D4
:103CC00011B101290CD105E0D0F840446FF30F0485
:103CD0001C4303E0D0F8404463F31F44C0F8404461
:103CE00001238B40D0F834140AB1194300E0994302
:103CF000C0F8341410BD1E4A525C002A03D10122C0
:103D00008A40C0F80824704701238B404AB1012A39
:103D10000DD0022A04D1D0F838141943C0F8381451
:103D20007047D0F818141943C0F81814704700EB06
:103D30000110016821F080010160704701238B4070
:103D40004AB1012A0DD0022A04D1D0F8381499437F
:103D5000C0F838147047D0F818149943C0F81814F4
:103D6000704700EB0110016841F08001016070476D
:103D7000BCC200200000FFFF3C840040F0B50023DF
:103D80000127032507FA03F48C4309D106685C0078
:103D900005FA04FC26EA0C0602FA04F4264306603F
:103DA0005B1C102BEED3F0BD10B5836901248C4051
:103DB000A343140E8C4023438361C3694FF0011465
:103DC0008C4022F07F42A3438A401343C36110BD5D
:103DD000826901238B409A438261C2694FF00113CB
:103DE0008B409A43C2617047F0B500230127032539
:103DF00007FA03F40C4209D0866A5C0005FA04FC59
:103E000026EA0C0602FA04F4264386625B1C102B99
:103E1000EED3F0BDF0B500230127032507FA03F424
:103E20000C4209D0066B5C0005FA04FC26EA0C067D
:103E300002FA04F4264306635B1C102BEED3F0BD9C
:103E400038B5040017D0207908B1022813D1E068F2
:103E500001F01FF878B1A16959B1226A2AB1012095
:103E600000900023E06800F081FF04F1180003F0E7
:103E70000FFA002038BD032038BD70B5040018D0FB
:103E8000E068B0B101F005F898B12046FFF7D8FF1F
:103E90000020E5680146E060284600F09EFF012111
:103EA000284600F005FF0121204600F004F800201C
:103EB00070BD032070BD2DE9FC410C00064601D009
:103EC00000F0D5FB06F11400074604F092FDFE4D0C
:103ED00030B911E0009818B1A84201D003F04AFDB2
:103EE0006946384604F078FD0028F3D1384604F0DE
:103EF0002AFD384604F084FD06F11000074604F060
:103F000078FDB0B1F04E761C01A9384604F064FD8E
:103F100048B101980028F7D0A842F5D0B042F3D0BC
:103F2000FFF7ABFFF0E7384604F00DFD384604F02C
:103F300067FD002C01D000F091FBBDE8FC8131B59C
:103F400084B0049818B300F092FB00210498FFF7A6
:103F5000B2FFDD4C04986168884211D1002565608C
:103F600000F07CFB0120CDE90250049800950195FA
:103F70000023C1881A46184600F0BCFC00F077FB0D
:103F8000A168049A914205D10868A06009E0032065
:103F900005B030BD29B1086818B1824208D1006867
:103FA000086000F05BFB04A803F072F90020EFE763
:103FB0000146F0E710B501F093F8C34C052805D091
:103FC00010280ED1606860B1214607E0606840B1FA
:103FD00000F079FD28B9BC496068491C103004F034
:103FE000EDFC002010BDF8B5064600F040FBB64CD5
:103FF0000025A07818B1A570B44800F0CEFC00F000
:104000002DFB2C21012003F027F90090A8B10671A7
:1040100085840521103004F089FC98B100980821AE
:10402000143004F083FC68B100F021FBA06830B1CB
:1040300000990860A16000F011FB0098F8BD00989D
:10404000A060F8E70098103004F0D3FC38B1009875
:10405000103004F078FC0098103004F0D1FC009887
:10406000143004F0C6FC38B10098143004F06BFC36
:104070000098143004F0C4FC009810B1684603F0B6
:1040800007F90020F8BD70B5064600F056FF05465A
:10409000304601F025F8072837D0092803D00B282F
:1040A00057D0022070BD284600F0C5FE00282846E3
:1040B00004D000F09CFE18B3C56057E000F0D2FEBB
:1040C000F0B1814E7068D8B10020FFF78CFF04007A
:1040D00016D001462846E56000F07FFE706810307B
:1040E00004F087FC28B170682146103004F066FCAB
:1040F00048BB0021284600F070FE2046FFF71FFF56
:104100000021284600F0D4FD30E0284600F06FFE84
:104110000446304600F0F7FF06460146284600F008
:104120005AFE304603F055FC74B104F11400054604
:1041300004F05FFC40B13146284604F03FFC18B162
:10414000A068401CA06011E0304603F013FC012081
:1041500070BD284600F04BFE40B11430044604F018
:1041600048FC18B15849204604F028FC002070BDD6
:104170003EB570B169B162B1554C0123CDE900047F
:104180000293007913460A460146002000F05BFDC9
:104190003EBD03203EBD002210B1C18010467047D5
:1041A00003207047002210B181841046704703201D
:1041B00070477FB5040001D0207910B1032004B00E
:1041C00070BD00200122424BCDE90030CDE9020252
:1041D000A38C052901D20A4600E00522E1880120CE
:1041E00000F088FB050005D100F041FA3648446034
:1041F00000F034FA2846E2E70521DAE7F8B50C4684
:1042000030B12CB1017919B92F4D6968884201D0BC
:104210000320F8BD0026324669461030266004F0BF
:10422000B0FB401C0AD028490098884208D100F011
:104230001EFA6E6000F012FA0F20F8BD0220F8BDE1
:104240002149491C884206D100F011FA6E6000F045
:1042500005FA1020F8BD20600020F8BD2DE9FC47CC
:104260001546040089460F4639D0207908B1022846
:1042700035D1E06800F00DFE60B3A0694FF0010891
:1042800048B3D4E90721561AAE4200D32E464EB1A8
:1042900008443246494604F0CDFF206A3744304492
:1042A000AD1B2062D4E90720904231D1CDF80080C7
:1042B00001ABA169E06800F059FD064604F1180061
:1042C00002F0E6FF3EB107E09C000020B53F000091
:1042D0008740000003E004E03046BDE8FC8703208F
:1042E000FBE74FF40066B5420ED3C5F30A002A1A65
:1042F000CDF8008001AB3946E06800F037FD0028BA
:10430000EBD1019807442D1A15B1A06910B109E04D
:104310000020E2E7304602F06EFF00212162C4E98E
:10432000060648B1216A2A460844394604F082FF4D
:10433000206A28442062EBE7CDF8008000232A465B
:104340004946E06800F012FDC7E7F8B515460E468D
:1043500004000FD0207901280CD1E06800F099FD0D
:1043600040B10120009000232A463146E06800F069
:10437000FDFCF8BD0320F8BD2DE9FE431D460A9F54
:1043800016468846040013D02079012810D1E06831
:1043900000F07FFD60B1012000210097CDE9011000
:1043A0002B4632464146E06800F0C4FCBDE8FE837F
:1043B0000320FBE770B50C4678B174B10025256089
:1043C000826A143004F0DDFA401C08D00C492068E1
:1043D000884206D10720256070BD032070BD0520EE
:1043E00070BD002070BD18B1C06808B100F076BD86
:1043F0004FF0FF30704781627047806A704700005D
:104400009C0000202DE9F05F8046DDE90BB91D46D8
:1044100016460F464C20DDF828A002F0ECFE040002
:1044200019D04C2104F01FFF5FEA090000D00120E1
:1044300020722920C4E906AB2070C4F82080C4E9AA
:10444000097684F82C502046BDE8F05F4FF47A726C
:10445000804902F006BD0420BDE8F09F2DE9F05F21
:104460001E46DDE90BB9DDF828A017468846050091
:104470001DD04C2002F0BFFE04001AD04C2104F0E5
:10448000F2FE5FEA090000D0012020722A20C4E970
:1044900006AB2070A762C4E9085884F82C60204657
:1044A000BDE8F05F4FF47A726A4902F0DABC03208B
:1044B000D2E70420D0E72DE9F04780461D46164696
:1044C0000F464C20DDF8209002F095FE040017D036
:1044D0004C2104F0C8FE5FEA090000D001202072E0
:1044E000C4E9066527202070C4F8208084F8247071
:1044F0002046BDE8F0474FF47A72564902F0B1BC4D
:104500000420BDE8F0872DE9F0471E46DDF8209035
:1045100017468846050002D02878C00701D003203E
:10452000EFE74C2002F067FE040016D04C2104F0A7
:104530009AFE5FEA090000D001202072C4E90676E5
:1045400028202070256284F824802046BDE8F047AA
:104550004FF47A723F4902F084BC0420D1E72DE980
:10456000F05F1D46DDF834B0DDF83CA00A9E9046B1
:104570000F465FEA000912D027B1084604F09AFE00
:1045800040280CD82DB1022D03D0032D01D0042DCD
:1045900005D1B8F1800F02D80EB10A2E01D903203F
:1045A0005AE74C2002F027FE040023D04C2104F0EF
:1045B0005AFE5FEA0A0000D001202072C4F818B049
:1045C0000E98E06126202070C4E9089784F82980BD
:1045D00084F8285084F82A600B9884F82B000C98F3
:1045E00084F82C002046BDE8F05F42F210721949B1
:1045F00002F037BC04202FE72DE9F0479846DDE9AB
:1046000008A915460E4607001FD0F6B10DB10020CF
:1046100028604C2002F0EFFD040018D04C2104F07B
:1046200022FE5FEA090000D001202072C4E9068A58
:104630002B202070E562C4E908762046BDE8F047EB
:104640004FF47A72034902F00CBC032059E70420AE
:1046500057E700000166000000207047FA4810B5D7
:104660000168491E016004F0F5F8002010BD10B586
:1046700004F0E2F8F4480168491C0160002010BD14
:104680002DE9F041064617460D464C2002F0B3FDD9
:10469000040005D04C2104F0E6FD27B1012003E021
:1046A0000420BDE8F08100202072C4E906650620E0
:1046B0002070012060702046BDE8F04141F2883250
:1046C000E24902F0CEBB2DE9FC5FDF4C8A464FF099
:1046D000000994F8881121F0010184F8881100B9CB
:1046E000DB48DC4948600020C4E90F1004F08EF874
:1046F000D54F010007F10C0807F1080763D001212D
:10470000201D04F0C8F800285DD01021384604F0C0
:104710000DF9002857D01021404604F007F9002871
:1047200051D00021201D04F0D2F80125AE02C64868
:10473000CDE900651030231DC74AC8A1834604F0A7
:1047400063F9E0B30021201D04F0C1F8BE48CDE9B3
:104750000065231DC44AC5A1143004F055F9002892
:1047600051D00021201D04F0B2F8201D04F0C8F83B
:10477000FFF77DFF4FF4E1302062B348183003F0BB
:1047800049FF94F8880140F0030084F88801002074
:1047900000F030FE00F056FA94F88801800709D541
:1047A000FFF75CFF002152460846FFF769FF81468C
:1047B000FFF75DFFFFF752FF4846BDE8FC9FFFE7AC
:1047C000201D04F09DF8384604F013F928B138464E
:1047D00004F0B9F8384604F013F9404604F009F93A
:1047E00028B1404604F0AFF8404604F009F9201D16
:1047F00004F091F828B1201D04F063F8201D04F0A6
:1048000091F80420D9E7584604F00CF9D8E72DE9CF
:10481000F04180461F4615460E464C2002F0EBFC48
:10482000040005D04C2104F01EFD1FB1012002E060
:10483000042036E700202072C4E9066501202070BC
:104840002046C4F82080BDE8F04141F288327F491B
:1048500002F007BB13460A4601460020D7E72DE9C0
:10486000F04780461D4616460F464C20DDF8209046
:1048700002F0C1FC040017D04C2104F0F4FC5FEA04
:10488000090000D001202072C4E9066516202070BE
:1048900084F8208084F821702046BDE8F0474FF46A
:1048A0007A726A4902F0DDBA0420BDE8F0872DE98A
:1048B000F04180461F4615460E464C2002F09BFCF8
:1048C000040005D04C2104F0CEFC1FB1012002E011
:1048D0000420E6E600202072C4E906650720207067
:1048E0002046C4F82080BDE8F0414FF4FA625749F1
:1048F00002F0B7BA2DE9F05F1F46DDE90CB9DDF82B
:104900002CA090460D00064623D04C2002F073FCEC
:10491000040021D04C2104F0A6FC5FEA090000D07D
:10492000012020723620C4E906AB20700EB137207A
:10493000607084F820606584A4F82480E7840A9875
:10494000A0622046BDE8F05F4FF47A723F4902F062
:1049500088BA0320BDE8F09F0420FBE72DE9F04171
:10496000064617460D464C2002F045FC040005D0D3
:104970004C2104F078FC1FB1012002E0042090E6F5
:1049800000202072C4E906653A2020702046BDE868
:10499000F041394A2D4902F064BA70B505004FF074
:1049A000000404D0FFF763FE274EF16B07E00320FD
:1049B00070BD4868A84201D1022418E009680029A6
:1049C000F7D1A4B9082002F016FC02000ED0002096
:1049D000C2E90005F06B18B91E48F06300E0084614
:1049E00001680029FBD10024026000E00424FFF7E5
:1049F00035FE204670BD38B5040005D0FFF737FE00
:104A00001148C26B10680CE0032038BD4868A04212
:104A100005D108681060684602F03AFC04E00868B6
:104A20000A4600900100F1D1FFF718FE002038BDC2
:104A30002DE9F0411D461646884607460024FFF73B
:104A400016FEDFB101211AE0CCC200200166000091
:104A500059460000A8000020018000006573705FC7
:104A600070726F6475636500F78000006573705F36
:104A700070726F636573730020BF02000021264AC5
:104A800092F88801C0F340038B4218D061F34100D3
:104A900082F88801800703D4012000F0BBFC0BE002
:104AA000FFF7DCFD2B46324641464FF47A70FFF7A4
:104AB000AEFE0446FFF7DBFD052000F09BFCFFF790
:104AC000CDFD2046EDE510B5FFF7D1FD124890F879
:104AD0008801C0F34004FFF7C1FD204610BD0E4918
:104AE00031F8452F0280897881700120704738B5F0
:104AF00004000FD00021684603F0CDFE00280AD044
:104B00002146684603F0E3FE684603F0F9FE684676
:104B100003F0D7FE012038BDCCC200200246FC497C
:104B20004FF4FA7003F02CBB10B5044690F828003F
:104B3000C0070CD0F7480C2180F82810C46200216F
:104B4000204600F04AFC2046BDE81040E6E710BDD4
:104B500010B50446FFF78BFD247DFFF77FFD20464F
:104B600010BD2DE9F05F1F46DDE90A86DDF834B09F
:104B700091468A46050010D07FB15FEA08000CD04C
:104B80000EB1002030600024FFF771FD95F8280079
:104B9000010705D4C00703D003E00320BDE8F09F60
:104BA0000724FFF75BFD0CB12046F7E74C2002F02D
:104BB00022FB040021D04C2104F055FB5FEA0B00DE
:104BC00000D00120207231202070C4F83CA0E762A0
:104BD0006664C4E90858A4F840900C9884F8420030
:104BE0002846FFF7B5FF84F848002046BDE8F05F8F
:104BF0004EF66022C84902F034B90420CEE77FB5F2
:104C000004460025FFF733FDBCB1A369ABB1206AB0
:104C1000002660B10121CDE90006CDE9021600228F
:104C200011462046FFF79DFF050001D104E0022553
:104C300004F1180002F02CFBA661FFF70FFD04B091
:104C4000284670BD70472DE9F05F1D46DDE90B7AFF
:104C5000DDF828B016008846814625D025B31FB35D
:104C60004C2002F0C8FA040020D04C2104F0FBFADA
:104C70005FEA0A0000D001202072302020702F202F
:104C80006070052084F83400C4F8209084F82A80ED
:104C900066622585C4E90BB72046BDE8F05F4EF695
:104CA00060229D4902F0DDB8032077E7042075E714
:104CB00070B50E46050009D00024FFF7D8FC95F822
:104CC0002800010704D4C00702D002E0032070BD11
:104CD0000724FFF7C3FC5CBB4C2002F08CFA0400F5
:104CE00005D04C2104F0BFFA1EB1012002E00420DF
:104CF00070BD002020723220207028462562FFF708
:104D000027FF84F824002846FFF779FF4FF47A72D2
:104D10008149204602F0A5F80446304308D1FFF748
:104D2000A6FC15F8280F40F008002870FFF796FC45
:104D3000204670BD2DE9FF479846DDE90D650C9FC3
:104D400091468A4604000FD0FFF759FF0020CDE9B5
:104D50000205CDE9007643464A4651462046FFF714
:104D600000FF04B0BDE8F0870320FAE72DE9FF4714
:104D70009846DDF83090144605000F4629D047B319
:104D80003CB3FFF774FCA86980B1D5E90721561A36
:104D9000A64200D926464EB108443246394604F0B0
:104DA00049FA286A37443044A41B2862FFF756FCAE
:104DB0002846FFF724FF002CD3D00022CDF80C901A
:104DC0000094CDE901823B4611462846FFF7C9FE13
:104DD000C7E70320C5E70020704770B50C460546BD
:104DE000FFF745FC2C61FFF739FC002070BD10B5C2
:104DF0000446FFF73CFC2469FFF730FC204610BD59
:104E000070B505464C2002F0F6F9040005D04C219F
:104E100004F029FA1DB1012002E0042070BD002039
:104E200020722F2020702046BDE870404FF47A7227
:104E3000394902F016B870B505004FF000040FD0E4
:104E400001F0FDFF60B1FFF712FC95F82800C107E3
:104E500003D0800701D5012400E00024FFF7FEFB0A
:104E6000204670BD70B505004FF000040FD001F072
:104E7000E6FF60B1FFF7FBFB95F82800C10703D000
:104E8000800701D4012400E00024FFF7E7FB20465F
:104E900070BD70B505004FF000040AD001F0CFFFDF
:104EA00038B1FFF7E4FB95F8280000F00104FFF7A4
:104EB000D5FB204670BD70B505004FF000040BD047
:104EC00001F0BDFF40B1FFF7D2FB95F8280040F399
:104ED0000004641CFFF7C2FB204670BD70B50500DE
:104EE0004FF0FF3404D001F0AAFF08B195F901405A
:104EF000204670BD70B505460E464C2002F07BF989
:104F000004000BD04C2104F0AEF94EB1012008E0B2
:104F1000294B0000CCC2002001660000042070BDB7
:104F2000002020723320207020462562BDE87040AA
:104F30004FF47A72694901F094BF0178C91F0629BC
:104F40000ED2DFE801F00709030D050B00F0E5B80C
:104F500000F0EAB800F0D9B800F0D9B800F0ECB829
:104F6000002070472DE9F04F85B09A46DDF8388073
:104F700015460E46040048D0A0694FF0010B4FF0D3
:104F8000000930B3D4E90721571AAF4200D32F46A6
:104F900008443A46314604F04DF9206AED1B384486
:104FA0002062E1693E44884202D0BAF1000F10D07D
:104FB0004F468DE88108CDF80C900022114620461E
:104FC000A369FFF7CEFD18B104F1180002F060F9F3
:104FD000A7614FF40067BD4220D3384602F00BF9B9
:104FE0000490E8B33A46314604F024F9CDE900795B
:104FF000CDE902B9002211462046049BFFF7B1FD1E
:1050000038B104A802F044F92EE0032005B0BDE851
:10501000F08FA5F5006506F50066DCE7A06930B9FC
:10502000384602F0E8F804F1180181E8810235B150
:10503000A069A8B12A46314604F0FCF82562BAF10D
:10504000000F04D0A06910B12046FFF7D8FDB8F1D9
:10505000000F0DD0A06948B1D4E90701411A00E062
:1050600002E0C8F8001003E00420CFE7C8F8009081
:105070000020CBE770B504004FF0000504D0FFF727
:10508000F6FA656AFFF7EAFA284670BD70B50C4675
:10509000050009D044B1FFF7EAFAD5F80200206014
:1050A000FFF7DCFA012070BD002070BD70B5040070
:1050B0004FF0000504D0FFF7DAFAE588FFF7CEFAE3
:1050C000284670BD70B504004FF0000504D0FFF70E
:1050D000CEFA2589FFF7C2FA284670BD01660000A6
:1050E000007870470079002800D0012070470079CF
:1050F0007047007970474068704780687047406823
:1051000070474068704780687047406870474068E3
:10511000704780687047007B704740687047007A2E
:10512000002800D00120704740687047007A70471F
:10513000407A7047807A704740687047007C7047BB
:10514000807A70474068704700897047C068704730
:105150000079704780687047C06870470079704771
:105160004068704749688A690260898B818070470E
:105170004068807F70474068B0F916007047007A39
:1051800070470079704780687047C0687047007941
:105190007047C088704740797047000070B5064678
:1051A0000D4800250C4690F88801C00712D00B4925
:1051B0000868204408604868401C486044B1FFF714
:1051C00056FA2146304601F092F80546FFF746FAB6
:1051D000284670BD022070BDCCC20020B000002067
:1051E00070B5FF4C06460D4694F8440060B90EB108
:1051F000FCA000E0FDA004F05DF801460EB1F9A0AE
:1052000000E0FAA0A2699047002D05D0A269BDE890
:1052100070400121F7A0104770BD2DE9FC41F04E10
:1052200090460D4607461BB1B2690121F2A0904796
:10523000002F39D0B8F1000F03D0B2690121EFA0DF
:1052400090470DB12E2000E03A208DF80400002494
:105250001DE0385D15B100231A4601E0022301224A
:10526000694603F045F8684604F024F80146B2693F
:10527000684690470DB1042000E00620401EA04281
:1052800003DDB269012101A89047641CE4B20DB1AD
:10529000042000E00620A042DBD8B8F1000F03D0C4
:1052A000B2690121D5A09047BDE8FC81F8B504465C
:1052B0005C20CB4D16460F468DF800001BB1AA6945
:1052C0000121CDA090471EB1AA690121CBA0904732
:1052D000DCB17FB912E02C2803D0222801D05C2851
:1052E00003D1AA69012168469047AA690121204695
:1052F0009047641C20780028EDD106E0204603F09A
:10530000D9FF0146AA6920469047002E03D0AA691A
:105310000121BAA09047F8BDFEB516460D46002300
:105320001A46694602F0E4FFAD4C1EB1A2690121A4
:10533000B1A090471DB1A2690121B0A09047684675
:1053400003F0B8FF0146A26968469047002D03D0DC
:10535000A2690121A9A09047FEBD7CB516460D4665
:1053600000231A46694602F0C3FF9D4C1EB1A26994
:105370000121A1A090471DB1A26901219FA09047E2
:10538000684603F097FF0146A26968469047002DE2
:1053900003D0A269012199A090477CBDFEB50D46BE
:1053A0001646694602F0EAFF8D4C1EB1A269012142
:1053B00091A090471DB1A269012190A09047684635
:1053C00003F078FF0146A26968469047002D03D09C
:1053D000A269012189A09047FEBD814A283219B9EE
:1053E000002806D0C16809B1104608470021FFF720
:1053F0005FBC704770B57A4901F1280581F8280033
:10540000CC6B03E06168284688472468002CF9D1FA
:10541000002070BD70B5064601F0E9FD704C002516
:1054200084F86F5194F8700110B11020FFF7E2FF7B
:1054300084F87051E06F10B102F09CFAE56768489B
:105440004FF4A271443003F00EFF84F844504FF43F
:10545000E13020626248183003F0DCF8002E06D1FB
:10546000BDE87040002211461046FFF7F3B970BD49
:1054700070B55B4D686A046A2046FFF70AFD28B1E3
:10548000686A227D90F8481091421FD0686A58B12E
:1054900090F8421041B1002180F84210686AC16A58
:1054A00011B12C3001F0F4FE082085F82800072007
:1054B00085F8340055F8240F016AA960416BE96052
:1054C000006A0021FFF789FF022070BD416A4FF496
:1054D0000062914200D311460163AA69022148A0EB
:1054E0009047AA69092147A0904700226078114699
:1054F000FFF712FF686A01220021006BFFF70CFF23
:105500002078012811D1696AC86B70B1B1F84010D8
:1055100059B101231A461946FFF77FFE686A012236
:105520000021B0F84000FFF718FFAA69022138A057
:105530009047002070BD2A4A10B5516AC8B1D1E920
:105540000C3018444863506A036B416AC91A4162BF
:10555000506A036B816A19448162516A486C18B1C0
:105560000368096B19440160516A002081F8380012
:1055700006E011F8380F401CC0B20870032806D0AE
:10558000506A406A18B1FFF773FF002800D001206D
:1055900010BD134A0A2082F8280052F8240F436AEB
:1055A0009360038D938190F82A309373C36A1361DB
:1055B0001175016B0A4828300847094A0020526AD1
:1055C00012B15278162A48D0162A2FDC042A42D06B
:1055D00022DC012A3BD0022A01D0032A1BD119E088
:1055E000CCC200205F444546000000005F43555296
:1055F000000000003D0000002C0000002200000020
:10560000415400002B43495053454E443D00000097
:105610000D0A000015207047062A18D0142A18D049
:10562000152AF8D10878A0B114207047292A1CD077
:1056300007DC172A15D0222A11D0272AF5D13B20C2
:1056400070472F2A0FD0352AFAD117207047022031
:10565000704704207047162070472220704735207D
:1056600070472F20704729207047272070472DE969
:10567000F05F0E46FE4905460024486A984691466A
:105680002746002870D08A4601784FF0010B012987
:105690001AD05246062926D002234FF00B0C1829A7
:1056A00040D01B297CD0192972D01F2971D01E2906
:1056B00070D016296FD02C296ED030296DD03229A8
:1056C0006CD021296BD0F8E031462846FFF775FFF2
:1056D00004005BD1307808B1002000E002208AF895
:1056E0002C000220A8E04078012802D0062805D02E
:1056F00007E098F8000020B10624E5E098F80000E3
:1057000038B143464A4631462846FFF756FF040063
:105710003CD1307808B1002000E002208AF82C004B
:10572000032089E0407818280BD0222828D01E2892
:1057300028D082F82C7092F82C008AF82C001320C4
:105740007AE0307808B12224BEE082F8707195F8D2
:105750002D00012809D002280AD003280AD00428E5
:105760000CD082F82C30E6E74CE082F82CC0E2E75F
:105770000C2000E00D2082F82C00DCE70E20FAE778
:105780001E24A1E01120FFF735FE1C2492E007E063
:1057900014E01FE027E028E041E050E06CE09FE0EB
:1057A000307808B1002000E0022082F82C00686AFE
:1057B0001063E86ACAF8340012203DE0317809B17C
:1057C000002100E0022182F83010006ACAF82C00A3
:1057D000142031E040781F28B5D02228D0D01E28D0
:1057E00010D1112028E04078F7E795F82010022921
:1057F00001D0032906D14078162804D0292806D0E4
:10580000222808D099E03078F8B129245CE030787B
:10581000002898D191E03078B8B1272454E030784E
:1058200008B1002000E0022082F82C00286A1063F2
:10583000686ACAF834001820FFF7DCFD3AE0A9785E
:1058400021B1012909D002290CD076E040782F2817
:1058500073D13078F0B3302436E0407830286CD102
:105860002F2431E040782F2867D195F8350088BB88
:10587000377089F800B01DE0407832285DD199F882
:10588000000038B382F828C0286AD06282F831B0AC
:1058900082F83230286A90F82800C10703D08007C8
:1058A00001D5012000E000208AF830000021286A9C
:1058B000FFF793FDDAF8240028B1DAF82400514606
:1058C0000278362A11D02CB16C7069692846884755
:1058D000B8B300E031E0377089F800B0BDE8F09F60
:1058E000407821283FF42FAF27E095F8202092B18F
:1058F0004078372804D0362804D0392809D00AE067
:105900003624E1E7307830B1A86A3924CAF840007B
:10591000DAE786F800B0002CD6D1307808B1002044
:1059200000E0022001F82C0F95F820004870688CE8
:10593000AAF82E000D20FFF75DFD6F70307830B9AA
:1059400002E0FFE70620C9E798F8000008B1002050
:10595000C4E70220C2E72DE9F04786B000250446DF
:105960008DF80C508DF810508DF81450D0F8800040
:10597000022805D120780D2802D160780A2875D038
:105980003CA1204603F09DFC20B100208DF80C00C6
:1059900010B11AE00120F9E738A1204603F091FC8C
:1059A00048B138A1204603F08CFC20B100208DF8CE
:1059B000100010B109E00120F9E734A1204603F0FE
:1059C00080FCB8B300208DF814009DF81400284E18
:1059D0004FF00109B0B1706A20B1417801292CD093
:1059E00006292AD086F82C5028B18DF80C508DF855
:1059F00010908DF8145096F82C00FFF70BFD012045
:105A0000FFF7F8FC217804F10B0A2B2918D0204667
:105A100003F050FC042806D904221EA1204603F0FE
:105A20005EFC002872D0706A002870D0407804288C
:105A30006ED010E2FFE70120C5E786F82C90DAE788
:105A40000422214615A003F04AFC80B10E2215A1C4
:105A5000204603F044FC04F10F07A8B3112215A15E
:105A6000204603F03CFC80B30C222FE0FEE33BE039
:105A7000CCC200204F4B0D0A000000004552524F8F
:105A8000520D0A004641494C0D0A000072656164DE
:105A9000790D0A0057494649000000002B4950443F
:105AA000000000002B5354415F434F4E4E4543547A
:105AB000454400002B5354415F444953434F4E4EDD
:105AC000454354454400000012E014E0FEA1204686
:105AD00003F005FCA8B1706A0028A6D0417804F153
